:100000000C9462020C94A9020C94A9020C94A9020B
:100010000C94A9020C94A9020C94A9020C94A902B4
:100020000C94A9020C94A9020C94C3240C94962558
:100030000C94481B0C94A9020C94A9020C94A902DC
:100040000C94A9020C94A9020C94A9020C94A90284
:100050000C94A9020C94A91B0C94A9020C94A9025B
:100060000C94A9020C94A9020C94A9020C94A90264
:100070000C94A9020C94A9020C94A9020C94A90254
:100080000C94A9020C94A9020C94A9020C94A90244
:100090000C94A9020C94A9020C94A9020C94A90234
:1000A0000C94A9020C94A9020C94A902007101718C
:1000B0000271010001000100320001000100010095
:1000C0000100010001000100010001000100010028
:1000D0000100010001000100010001000100010018
:1000E0000100010001000100010001000100010008
:1000F00001000100010001000100010001000100F8
:1001000001000100010001000100010064321464DB
:100110003214783C1E1E140A050000000001010183
:100120000202030405050607090A0B0C0E0F111243
:10013000141517191B1D1F212325282A2C2F313494
:1001400036393B3E414346494C4F5255585A5D6102
:1001500064676A6D707376797C7F8386898C8F92F1
:1001600095989B9EA2A5A7AAADB0B3B6B9BCBEC1D7
:10017000C4C6C9CBCED0D3D5D7DADCDEE0E2E4E624
:10018000E8EAEBEDEEF0F1F3F4F5F6F8F9FAFAFB44
:10019000FCFDFDFEFEFEFFFFFFFFFFFFFFFEFEFE7C
:1001A000FDFDFCFBFAFAF9F8F6F5F4F3F1F0EEEDEB
:1001B000EBEAE8E6E4E2E0DEDCDAD7D5D3D0CECB7A
:1001C000C9C6C4C1BEBCB9B6B3B0ADAAA7A5A29EEC
:1001D0009B9895928F8C898683807C797673706DDD
:1001E0006A6764615D5A5855524F4C494643413ED7
:1001F0003B393634312F2C2A282523211F1D1B196A
:1002000017151412110F0E0C0B0A09070605050429
:1002100003020201010100000000000000000101D2
:1002200001010101010101020202020202020202B5
:100230000303030303030303040404040404050584
:100240000505050606060606070707070808080845
:100250000909090A0A0A0A0B0B0B0C0C0C0D0D0DEF
:100260000E0E0F0F0F101011111112121313141480
:10027000151516161717181819191A1A1B1C1C1DF4
:100280001D1E1F1F2020212222232425252627274B
:1002900028292A2B2B2C2D2E2F2F30313233343579
:1002A00036363738393A3B3C3D3E3F404142434485
:1002B000464748494A4B4C4D4F505152535556575B
:1002C000585A5B5C5E5F606263646667696A6C6D06
:1002D0006E707173747678797B7C7E80818384867E
:1002E000888A8B8D8F91929496989A9B9D9FA1A3BB
:1002F000A5A7A9ABADAFB1B3B5B7B9BBBDBFC1C4BD
:10030000C6C8CACCCFD1D3D6D8DADCDFE1E4E6E880
:10031000EBEDF0F2F5F7FAFCFF12036B00650079E4
:100320000062006F0061007200640000001603713B
:10033000006D006B006200750069006C0064006570
:1003400000720000000403090409026D00040100AA
:10035000A0FA0904000001030101000921110100B4
:10036000012240000705810308000A090401000179
:1003700003010200092111010001224D000705823D
:100380000308000A0904020001030000000921110A
:100390000100012236000705830308000A0904034F
:1003A00000010300000009211101000122390007AA
:1003B0000584032000011201100100000008EDFE79
:1003C000606001000102000105010906A1010507A5
:1003D00019E029E715002501950875018102050836
:1003E0001901290595057501910295017503910182
:1003F0000507190029F71500250195F875018102F7
:10040000C005010980A10185021601002603001A1A
:1004100081002A8300751095018100C0050C090137
:10042000A1018503160100269C021A01002A9C02E4
:10043000751095018100C005010902A1010901A102
:10044000000509190129051500250195057501818A
:1004500002950175038101050109300931158125D6
:100460007F95027508810609381581257F950175EC
:10047000088106050C0A38021581257F950175084B
:100480008106C0C005010906A101050719E029E799
:1004900015002501950875018102950175088101F6
:1004A0000508190129059505750191029501750346
:1004B00091010507190029FF150026FF0095067513
:1004C000088100C011241FBECFEFDAE0DEBFCDBF30
:1004D00004B603FE27C080915A0290915B02A0915E
:1004E0005C02B0915D028730904BA740B04BD1F4D5
:1004F00010925A0210925B0210925C0210925D02FE
:1005000014BE84B7877F84BF0FB6F894A8958091F6
:100510006000886180936000109260000FBEE0E090
:10052000F8E3099511E0A0E0B1E0ECE3F2E502C0E8
:1005300005900D92A836B107D9F722E0A8E6B1E000
:1005400001C01D92AA35B207E1F70E9417220C9450
:10055000E7280C94000090E080E008950895089545
:1005600081E0089508950F931F93CF93DF938C013B
:10057000EB019A9581159F4138F510FF03C080EE7D
:10058000FB01099511FF03C081EEFE01099512FFE1
:1005900003C082EEFE01099513FF03C083EEFE0146
:1005A00009950115104180F084EEFE01099585EE54
:1005B000FE01099586EEFE01099587EEFE01DF91A9
:1005C000CF911F910F910994DF91CF911F910F91BE
:1005D0000895CF93C82F69E97FE00E94B3028C2F62
:1005E000CF910C94990FCF93DF93EC010E9475107B
:1005F00065E770E1CE01DF91CF910C94B30281E009
:1006000008950C94B0020E947F132FEF84E39CE0C6
:10061000215080409040E1F700C000000C94CC1BBA
:10062000EF92FF920F931F93CF93DF937C01DC0136
:100630000D911C9111978091A00181114BC01296D0
:100640008C91882309F441C0C8010E940A19C82F5F
:10065000682FC8010E94B318B8018C2F0E94C304F0
:10066000EC01B7010E940103882309F46FC0B701B0
:10067000CE010E94C50D882309F468C0B701CE01E0
:100680000E94FA06882309F461C0CE33B0E7DB0785
:1006900070F4C433E0E7DE0710F5C130F0E7DF07A0
:1006A00009F45CC050F5C115D04709F44AC081E097
:1006B00080936A0180936B01C701DF91CF911F91F5
:1006C0000F91FF90EF900C94FF02C8010E94E11877
:1006D000C82FC2CFC8010E940A19B801BFCFFE01BE
:1006E000E553F047D70112968C91E930F10508F0F7
:1006F00040C0E751F74D0C949928CE0182509047A5
:100700004397A8F6F70182818823B1F20E94D11A9B
:10071000811102C00E94AB1A0E94EE1A90E09093E1
:100720004B0280934A02FE01E350F04780914A0257
:100730008160E231F10508F047C0EE50F74D0C94AE
:100740009928F701828181110E94030380E0DF91E3
:10075000CF911F910F91FF90EF900895D7011296BE
:100760008C91882399F380910B02816080930B0216
:10077000EDCF882359F30E94E00AE8CF882331F3B4
:100780000E94D60AE3CF882309F30E94B309DECF83
:100790008823E1F20E94CB09D9CF8823B9F20E94C5
:1007A000EA09D4CF882391F20E94020ACFCF88238E
:1007B00069F20E941A0ACACF882341F20E94320AC3
:1007C000C5CF80914A02826080934A0280914A029A
:1007D0000E94F21A0E947F13B9CF80914A0284606E
:1007E000F3CF80914A028860EFCF80914A02806106
:1007F000EBCF80914A028062E7CF80914A02806409
:10080000E3CF80914A028068DFCF80914A028C60FA
:10081000DBCF80914A028E7FD7CF80914A028D7FB5
:10082000D3CF80914A028B7FCFCF80914A02877FBE
:10083000CBCF80914A028F7EC7CF80914A028F7DB5
:10084000C3CF80914A028F7BBFCF80914A028F77BE
:10085000BBCF80914A02837FB7CF90914A02892F04
:1008600097FB87F98058B0CF882361F010926A0116
:100870000E94781B909369018093680182E00E9436
:10088000C41064CF80916A0181110FC0809168010A
:10089000909169010E94841B883C910530F486E2A6
:1008A0000E94990F86E20E94751082E00E94CB1090
:1008B0004DCF882351F010926B010E94781B9093CA
:1008C00069018093680180E2DACF80916B01811128
:1008D0000FC080916801909169010E94841B883C3F
:1008E000910530F487E20E94990F87E20E9475100B
:1008F00080E2DCCF0E94610E0C944B07269A2E9862
:100900008FEF9FEF909387008093860082E2809321
:10091000800089E1809381000C94C91F0E947E04AD
:100920000C944907282F2E9880918000211108C02F
:100930008F7D8093800010928B0010928A00089522
:10094000806280938000233039F48FEF9FEF909383
:100950008B0080938A00089583E090E0821B9109C8
:10096000880F991F2FEF3FEF02C0369527958A9584
:10097000E2F730938B0020938A0008950C94B20222
:100980000C94BE040895272F280F3327331FF90135
:10099000C901880F991FE80FF91FE60FF11DEE0F2F
:1009A000FF1FE455FF4F859194910895FC01EE0FD0
:1009B000FF1FE45FFE4F8591949108950E94C30448
:1009C0000E947E069C01211581E5380708F046C08B
:1009D000211590E5390708F00CC1283E310518F5BE
:1009E000203E3105C8F5283A310578F4253A31051D
:1009F00008F097C02130310579F1C9010497813A97
:100A0000910550F130E020E027C02D3B310508F47E
:100A100093C0C901805C91098032910598F70E94CA
:100A2000D6049C0119C0211580E3380770F4211504
:100A300090E2390708F0D7C02F3F310509F060F484
:100A4000203F3105F8F2306507C0211580E43807F2
:100A500008F4CCC03F70306AC9010895211590E7B1
:100A60003907C8F5211580E6380708F0FAC02115C6
:100A700094E53907F0F4211583E5380708F0D8C06C
:100A8000211592E5390708F4CEC0C9018370992772
:100A900041E050E002C0440F551F8A95E2F72695C9
:100AA000269580E2289F90011124242B352B3C6849
:100AB000D3CF211595E5390708F4CEC0C901955566
:100AC0008F3F910511F008F09DCF322F222722276A
:100AD0003F713062C1CF213380E7380709F4C3C0CA
:100AE000A0F4203380E7380748F4203290E7390734
:100AF00008F488CF20523047346DAECF20333047D2
:100B000009F080CF20E031EDA7CF223390E73907FD
:100B100009F4ACC02333304709F074CF20E033ED43
:100B20009BCF253A310509F4A4C0263A310509F0D6
:100B3000A3C022E830E490CF283A310509F49FC0E1
:100B4000293A310509F49EC02A3A310509F49DC0BD
:100B50002B3A310509F49CC02C3A310509F49BC0AD
:100B60002B3B310509F49AC02C3B310509F499C09F
:100B70002D3A310509F498C0203B310509F497C09E
:100B80002E3A310509F496C02F3A310509F495C083
:100B9000213B310509F494C0223B310509F493C08F
:100BA000233B310509F492C0243B310509F491C07F
:100BB000253B310509F490C0263B310509F48FC06F
:100BC000273B310509F48EC0283B310509F48DC05F
:100BD000293B310509F48CC02A3B310509F48BC04F
:100BE00020E034E439CFC9019F7019CF3327306C2E
:100BF00033CFC90154E0969587955A95E1F78370F4
:100C0000422F46954695437090E2499FA0011124DA
:100C1000582B822F837021E030E002C0220F331F57
:100C20008A95E2F742CF322F2227216F306A14CF04
:100C3000C9018370992741E050E002C0440F551F5D
:100C40008A95E2F72695269580E2289F9001112447
:100C5000242B352B3A6800CF322F2227246F306A9D
:100C6000FBCE3F7036CF20E030EDF6CE20E032ED07
:100C7000F3CE21E830E4F0CE23E830E4EDCE22EEEE
:100C800034E4EACE29EE34E4E7CE2AEE34E4E4CECE
:100C900025EB34E4E1CE26EB34E4DECE23EB34E482
:100CA000DBCE24EB34E4D8CE27EB34E4D5CE2CECE9
:100CB00034E4D2CE2DEC34E4CFCE23E835E4CCCEF0
:100CC0002AE835E4C9CE22E935E4C6CE24E935E484
:100CD000C3CE21E236E4C0CE23E236E4BDCE24E228
:100CE00036E4BACE25E236E4B7CE26E236E4B4CE18
:100CF00027E236E4B1CE2AE236E4AECE803E91055C
:100D000081F1C8F48133910509F462C048F4893255
:100D1000910509F456C08A32910509F460C008951E
:100D200089339105B9F082389105A1F08533910599
:100D300009F440C00895863E910561F138F4823E81
:100D40009105B1F0833E9105E1F00895873E91054C
:100D500051F1089520914A022370D9F080EE90E07D
:100D6000089520914A0220FF14C089E390E008957D
:100D700020914A0222FF0DC024FD09C083EE90E0BD
:100D8000089520914A0222FD31C024FF02C090E064
:100D900080E0089520914A0223FFFBCF24FDF7CF86
:100DA00087EE90E0089520914A0223FFEECF86EE71
:100DB00090E0089520914A0225FFEBCF89E290E070
:100DC000089520914A0225FFE4CF85E390E008953D
:100DD00020914A0226FFDDCF8AE290E0089520911B
:100DE0004A0226FFD6CF81E390E0089582EE90E09C
:100DF000089508950F931F93CF938C01FB01828177
:100E0000811106C0C1E08C2FCF911F910F910895E1
:100E1000C0917901C11125C00531104799F70E9491
:100E2000F90681E0809379010E94781B9093780104
:100E30008093770110926C0110926E0110926D01F7
:100E40001092700110926F01109272011092710154
:100E50001092740110927301109276011092750134
:100E6000D2CF80917701909178010E94841B883CB9
:100E7000910540F680916C01E82FF0E0EE0FFF1F26
:100E8000E359FE4F118300838F5F80936C01C0E0B4
:100E9000BACF0C94AE020C94AF02CF93DF9385B718
:100EA000806885BF85B7806885BFA1E5B1E044E56E
:100EB00051E0C1E0D0E08D91E82FE295EF70F0E0D5
:100EC00061A18F709E0101C0220F8A95EAF7922FCF
:100ED0009095962391A382A1822B82A34A175B0748
:100EE00051F754985C9A10927B0110927A01DF912D
:100EF000CF910C948E04DF92EF92FF920F931F9389
:100F0000CF93DF9301E511E0D0E0C0E0EE24E3945D
:100F1000F12CDD24D394F80181918F01E82FE29523
:100F2000EF70F0E091A18F70A70101C0440F8A9586
:100F3000EAF7892F842B81A392A1342F3095932334
:100F400092A360EA6A95F1F720917A01C7010C2E0D
:100F500001C0880F0A94EAF74C9936C0822B80931F
:100F60007A0190917A0181A1832381A382A1842BAC
:100F700082A3291741F0D0927C010E94781B9093A4
:100F80007E0180937D012196C330D10521F68091A9
:100F90007C01882371F080917D0190917E010E94F7
:100FA000841B069730F080917A0180937B01109228
:100FB0007C010E947A0481E0DF91CF911F910F9113
:100FC000FF90EF90DF90089580958223C8CFE82F9F
:100FD000F0E0E558FE4F8081089508959C01CB0113
:100FE00065B1542F5095562365B1462B6FB7F894D1
:100FF000820F931F2817390711F46FBF0895F90165
:1010000071919F01E8E045B9000000C077FF55B934
:10101000770F000000C000C000C055B900C0EA95BD
:1010200091F7E8CFFC0194B1942B94B99B01220F66
:10103000331F620F731FCF010E94EE0787EC90E011
:101040000197F1F700C00000089542E00C941208E7
:10105000AF92BF92CF92DF92EF92FF920F931F93C6
:10106000CF93DF937C01E901842F242F662309F4B9
:101070003FC0C42ED12C8FEF90E0861B9109489F72
:101080008001499F100D1124212F812F9927C81A03
:10109000D90A9CE3A92EB12CC701B5010E94712881
:1010A000FB01BC01C69EC001C79E900DD69E900D4F
:1010B0001124B5010E947128E330F10509F443C001
:1010C00080EFE816F10468F4E130F10591F1329710
:1010D000A1F18CE3E816F10440F180E020E040E06B
:1010E00007C0E430F10599F1842F861B3597A9F7E5
:1010F000E42FF0E0E75EFD4F4491E22FF0E0E75E81
:10110000FD4F9491E82FF0E0E75EFD4FE4914983B5
:101110009883EA83DF91CF911F910F91FF90EF9019
:10112000DF90CF90BF90AF900895812F262F210F91
:10113000DFCF812F242F461BDBCF862F810FE42F9B
:10114000412F2E2FD5CFE42FE61B842FF9CF842FEC
:10115000462F410FCDCF88E090E00C94A728AB013B
:10116000BC0188E090E00C94C528CF93DF9300D0B9
:1011700000D0CDB7DEB7E8E3F2E083E080831182F0
:101180008FEF828383838091380290913902A091FE
:101190003A02B0913B0289839A83AB83BC83BC0142
:1011A000CD010F900F900F900F90DF91CF910C9485
:1011B000AF088091380280FD0CC01092410210925D
:1011C0004002109242021092440210924302109286
:1011D000450262E070E080E492E00C942508E0E4CF
:1011E000F2E08183608342838483638345830C942C
:1011F000D908EF92FF920F931F93CF93DF9300D004
:101200000F92CDB7DEB7182FE92EF62E042F80915E
:10121000380290913902A0913A02B0913B0280933A
:101220003C0290933D02A0933E02B0933F02809116
:10123000380280FF1FC09E012F5F3F4F812F9E2DE0
:101240000E94280880913C0210FB87F980933C02A1
:10125000169580913D028078182BE0FA17F91093CB
:101260003D02F0923E0200933F024B8169818A81E8
:101270000E94EF080F900F900F90DF91CF911F9178
:101280000F91FF90EF9008950F931F93CF93DF93EB
:1012900000D000D00F92CDB7DEB789839D83062F93
:1012A000142F8091380280FF54C0982F9E7792307F
:1012B00091F589819D810E94F90880913802B98158
:1012C000B0FB87F980933802B69580913902807817
:1012D000B82B8D8180FBB7F9B093390200933A02A5
:1012E00010933B028091380290913902A0913A020A
:1012F000B0913B0289839A83AB83BC83BC01CD014F
:101300000F900F900F900F900F90DF91CF911F9142
:101310000F910C94AF08982F96959F732EE3290F89
:101320002F73243018F410913B02C7CF965C9F7343
:10133000993018F6881F8827881F909139029D835D
:10134000990F982B9983AD81A7FBAA27A0F9AD83AC
:10135000B4CF0F900F900F900F900F90DF91CF911F
:101360001F910F910895E8E3F2E02081221F2227C8
:10137000221F30913902432F440F842F822B37FBD9
:10138000992790F9089668E671E00E9485284381C4
:1013900062810C94440920913802221F2227221FC7
:1013A00030913902432F440F842F822B37FB99272A
:1013B00090F98830910540F4805A9E4F40913B024D
:1013C00060913A020C944409089768E671E00E9423
:1013D0008528F4CF60913A02683F90F4685F80916D
:1013E0003802881F8827881F90913902292F220FE1
:1013F00097FB992790F940913B02822B0C9444096A
:101400006FEFEDCF60913A02683090F068508091B4
:101410003802881F8827881F90913902292F220FB0
:1014200097FB992790F940913B02822B0C94440939
:1014300060E0EDCF40913B02483F90F4485F8091DF
:101440003802881F8827881F90913902292F220F80
:1014500097FB992790F960913A02822B0C944409EA
:101460004FEFEDCF40913B02483090F048508091D3
:101470003802881F8827881F90913902292F220F50
:1014800097FB992790F960913A02822B0C944409BA
:1014900040E0EDCFCF93DF9300D000D0CDB7DEB7E3
:1014A0009091380290FF47C09178811132C09260CC
:1014B000909338028091380290913902A0913A02BB
:1014C000B0913B0289839A83AB83BC83BC01CD017D
:1014D0000E94AF0880913802982F9E77923009F5CC
:1014E00010929401881F8827881F90913902292F14
:1014F000220F97FB992790F940913B0260913A02A5
:10150000822B0F900F900F900F90DF91CF910C9442
:101510004409893110F09063CBCF8F73880F982BDB
:10152000C7CF982F9695925C9F739631D8F691E02D
:1015300090939401D7CF0F900F900F900F90DF9161
:10154000CF91089580910B02816080930B0281E01E
:10155000809395010E94D11A811104C00E94AB1A98
:101560000E94B5080E94AB0860933802709339025C
:1015700080933A0290933B026E7761F40E94B50823
:101580000E94AB08609338027093390280933A024C
:1015900090933B0281E0809394018091380280FF18
:1015A00004C086958F730C944A0A0895809138027E
:1015B00086958F738F5F893108F081E00C944A0A19
:1015C000CF93DF9300D000D0CDB7DEB79091380233
:1015D000892F8E7F90FF816080933802809138023E
:1015E00090913902A0913A02B0913B0289839A838B
:1015F000AB83BC83BC01CD010E94AF08809138024F
:1016000080FF0AC086958F730F900F900F900F90F8
:10161000DF91CF910C944A0A109294019FEFA0E7BA
:10162000B2E09150A040B040E1F700C000000F9040
:101630000F900F900F90DF91CF910C94D908CF931A
:10164000C82F80919201909193010E94841BEC2FEE
:10165000F0E0EB5EFE4FE491E817190609F010F593
:101660000E94781B9093930180939201E0919101E5
:10167000F0E0E75EFE4F449180913802881F882792
:10168000881F90913902292F220F97FB992790F9F3
:1016900060913A02822B0E94F908809191018F5F3C
:1016A00080939101CF910895CF93C82F80918F019E
:1016B000909190010E94841BEC2FF0E0EE5EFE4FB3
:1016C000E491E817190609F0E8F40E94781B90935A
:1016D000900180938F0140913B0260913A0280918A
:1016E0008D0190918E010E94F90880918D01909159
:1016F0008E01019668E671E00E94712890938E0138
:1017000080938D01CF910895FF920F931F93CF93F4
:10171000DF93F82E80918B0190918C010E94841BA5
:10172000EF2DE695F0E0EE5EFE4FE491E817190626
:1017300009F0B0F50E94781B90938C0180938B0187
:101740000091890110918A01C8E6D1E0C801BE016B
:101750000E94712820E432E040913B0260913A02FD
:101760000E942808C8018C549F4FBE010E94712816
:1017700023E432E040913B0260913A020E94280843
:101780000E94D9088091890190918A01F0FE0EC0D3
:101790000196BE010E94712890938A01809389016D
:1017A000DF91CF911F910F91FF9008950197F4CF92
:1017B000AF92BF92CF92DF92EF92FF920F931F935F
:1017C000CF93DF93C82F1FEF80FF11E08091870137
:1017D000909188010E94841BC695EC2FF0E0E15F98
:1017E000FE4FE491E817190611F008F04FC00E946F
:1017F000781B9093880180938701C0E4D2E0D12CBC
:10180000C12C27E0A22EB12C198218821A8287E0FF
:10181000E82EF12C00E080918601800F87FD8E5F1D
:10182000082E000C990B8C159D05E9F420913B02C4
:101830002E9DC0012F9D900D1124B5010E94852879
:10184000462F80913802881F8827881F909139027F
:10185000592F550F97FB992790F99E0160913A02F5
:10186000852B0E942808010F81E0E81AF10899F6FB
:101870002396CA94CD28A9F40E94D90880918601A4
:101880001130B9F4811111C010938601DF91CF910D
:101890001F910F91FF90EF90DF90CF90BF90AF908E
:1018A0000895CC24C394D12CAFCF8150809386016E
:1018B000EDCF90E0019681709927F8CFFF920F93BA
:1018C0001F93CF93DF9300D000D000D0CDB7DEB709
:1018D000182F80918401909185010E94841BE12F33
:1018E000F0E0E45FFE4FE491E817190611F008F00C
:1018F00072C00E94781B90938501809384011A82A4
:1019000019821B8210E0F0903C0100918301802F2E
:10191000F19E800D11241816B4F080913802881FB2
:101920008827881F90913902592F550F97FB9927C7
:1019300090F99E012F5F3F4F40913B0260913A0228
:10194000852B0E9428081F5F1730E9F61D821C8234
:101950001E8210E0802FF19E800D11241816B4F421
:1019600080913802881F8827881F90913902592F4B
:10197000550F97FB992790F99E012C5F3F4F40919F
:101980003B0260913A02852B0E9428081F5F1730A6
:1019900009F78D81809341028C81809340028E8172
:1019A000809342028A81809344028981809343021A
:1019B0008B81809345020E94D90890913C018091CF
:1019C00083019130C1F48A3F94F489EF80938301BD
:1019D0008FEF80933C0126960FB6F894DEBF0FBEC2
:1019E000CDBFDF91CF911F910F91FF90089581504E
:1019F00080938301F0CF89302CF088E080938301BD
:101A000081E0E7CF8F5FF4CF8091810190918201D7
:101A10000E94841B883E934038F10E94781B90936B
:101A200082018093810180917F01909180010196D4
:101A3000817099279093800180937F0120E432E0A8
:101A400040913B0260913A0290E080E00E942808B9
:101A500023E432E040913B0260913A0290E080E062
:101A60000E9428080C94D908089580919401882335
:101A700071F18091380286958F739EE3980F9F7362
:101A8000943018F482500C941F0B9AE3980F9F73B4
:101A9000933018F486500C94540B97E3980F9F736F
:101AA000963018F489500C94840B91E3980F9F732F
:101AB000963018F48F500C94D80B9BE2980F9F73BC
:101AC000933018F485510C945E0C0C94040D089519
:101AD000DC011D968C911D97811111C081E01D962E
:101AE0008C931D971296ED91FC911397309739F0D6
:101AF0001E966D917C911F97CD01069609940895CD
:101B0000FB01DC018C91813021F4808191810C9466
:101B1000E902823019F482819381F9CF0895FB01A3
:101B2000DC018C91813021F4808191810C94F3024D
:101B3000823019F482819381F9CF0895CF93DF9396
:101B4000EC018E8181111EC089819A81915724E018
:101B5000880F991F2A95E1F7DC01A050BF4F14961A
:101B6000ED91FC911597309731F01E966D917C9117
:101B70008A5F9E4F099518821D821F8210929701DD
:101B800010929601DF91CF910895EF92FF920F93FB
:101B90001F93CF93DF938C01DB0191572091960126
:101BA000309197012115310569F02017310751F067
:101BB00044E0220F331F4A95E1F7F901E050FF405E
:101BC00021E0238712964C9112978F3F910511F0D7
:101BD00008F054C020913D01022E000C330B281751
:101BE000390714F480933D017C0194E0EE0CFF1C56
:101BF0009A95E1F7E701C050DF4F4C8712968C9120
:101C00008823A1F118870F838E818F5F8E830E94B6
:101C1000781B9A878987E881F981309731F06E8542
:101C20007F85C7018A5F9E4F0995809196019091AB
:101C300097010097B9F080179107A1F09157EC0137
:101C400084E0CC0FDD1F8A95E1F7CE0180509F4FD5
:101C500021E0FC0123870E94680DCE018A5F9E4F20
:101C60000E949E0D109397010093960181E0DF91F1
:101C7000CF911F910F91FF90EF9008954423B1F3FE
:101C800080913D018F3F91F3C0E0D1E010E000E092
:101C9000FF24F39480913D01082E000C990B8017CE
:101CA000910724F38E81882341F0FB86CE010E94A8
:101CB000680DCE0106960E949E0D0F5F1F4F609625
:101CC000E9CF0F931F93CF93DF9380913D01C0E045
:101CD000D1E010E000E08F3FC9F4DF91CF911F9178
:101CE0000F9108958E81882371F089859A850E94CD
:101CF000841B893C910538F0CE010E94680DCE010D
:101D000006960E949E0D0F5F1F4F609680913D01C9
:101D1000082E000C990B8017910724F7DECF9093C3
:101D20009D0180939C010895E0919C01F0919D019B
:101D3000309721F00190F081E02D099480E0089522
:101D4000E0919C01F0919D01309721F00280F38198
:101D5000E02D09940895E0919C01F0919D01309748
:101D600021F00480F581E02D0994089520919A01D5
:101D700030919B012817390771F090939B01809354
:101D80009A01E0919C01F0919D01309721F006802D
:101D9000F781E02D099408952091980130919901DF
:101DA0002817390771F09093990180939801E09179
:101DB0009C01F0919D01309721F00084F185E02D88
:101DC0000994089508950C94E20E0E946F1B0E94DE
:101DD0004D070E942A1C0E94C91F0C94A20AEF9270
:101DE000FF921F93CF93DF9300D000D00F92CDB717
:101DF000DEB70E947B0780E00E94E707182F8091E2
:101E00009F01F82EF126811781F080910B0281FD50
:101E10000E94ED07F0FC1AC0F1FA882780F9F1FC66
:101E200052C092E082E0F2FC13C08FEF89838A8374
:101E30001B820E94781B8160782F9D838C8349814F
:101E40005A816B818D810E94700F25C090E080E0E7
:101E500099831A8221E030E0790102C0EE0CFF1C68
:101E60008A95E2F7812F90E08E219F21892B09F43A
:101E700020E02B830E94781B8160782F9D838C83C8
:101E800049815A816B818D810E94700F80919F01E1
:101E9000E826E0929F010E94D71E0E94940E909126
:101EA0009E01891791F00E94940E80939E010F90DD
:101EB0000F900F900F900F90DF91CF911F91FF9097
:101EC000EF900C94C00491E0C3CF0F900F900F904F
:101ED0000F900F90DF91CF911F91FF90EF90089599
:101EE000CF93DF93CDB7DEB72B970FB6F894DEBF55
:101EF0000FBECDBF4F83588769877A878B871E8235
:101F000085E0FE013796DE01119601900D928A95CB
:101F1000E1F749815A816B817C818D819E812B966D
:101F20000FB6F894DEBF0FBECDBFDF91CF910C94FA
:101F30000716882309F4D8C0823871F40E94940EE1
:101F400081FDD2C089E30E94B2190E947C1A89E304
:101F50000E94EF190C947C1A833859F40E94940E55
:101F600080FDC2C083E50E94B2190E947C1A83E5FD
:101F7000EFCF843859F40E94940E82FDB5C087E4F7
:101F80000E94B2190E947C1A87E4E2CF9CEF980F5E
:101F9000913A18F40E94B219DDCF90E2980F983070
:101FA00050F4877091E001C0990F8A95EAF7892F64
:101FB0000E94331ACFCF9BE5980F933070F4853A87
:101FC00031F0863A39F083E890E00C94B60E81E85F
:101FD00090E0FBCF82E890E0F8CF98E5980F95313C
:101FE00008F082C0883A09F440C0893A09F440C038
:101FF0008A3A09F440C08B3A09F440C08C3A09F49B
:1020000040C08B3B09F440C08C3B09F440C08D3A82
:1020100009F440C0803B09F440C08E3A09F440C046
:102020008F3A09F440C0813B09F440C0823B09F477
:1020300040C0833B09F440C0843B09F440C0853B69
:1020400009F440C0863B09F440C0873B09F440C016
:10205000883B09F440C0893B09F440C08A3B09F43D
:1020600040C090E080E00C94CC0E82EE90E0FBCF7C
:1020700089EE90E0F8CF8AEE90E0F5CF85EB90E026
:10208000F2CF86EB90E0EFCF83EB90E0ECCF84EBE8
:1020900090E0E9CF87EB90E0E6CF8CEC90E0E3CFE7
:1020A0008DEC90E0E0CF83E891E0DDCF8AE891E02D
:1020B000DACF82E991E0D7CF84E991E0D4CF81E211
:1020C00092E0D1CF83E292E0CECF84E292E0CBCF18
:1020D00085E292E0C8CF86E292E0C5CF87E292E047
:1020E000C2CF8AE292E0BFCF0895882309F44BC0A3
:1020F000823871F40E94940E81FF45C089E30E94EA
:10210000B2190E947C1A89E30E94EF190C947C1A80
:10211000833859F40E94940E80FF35C083E50E94F5
:10212000B2190E947C1A83E5EFCF843859F40E94DB
:10213000940E82FF28C087E40E94B2190E947C1A84
:1021400087E4E2CF9CEF980F913AF0F290E2980F7B
:10215000983050F4877091E001C0990F8A95EAF7A2
:10216000892F0E94391AD2CF9BE5980F933020F423
:1021700090E080E00C94B60E885A853120F490E00F
:1021800080E00C94CC0E0895882321F00E94331A2D
:102190000C947C1A0895882321F00E94391A0C941B
:1021A0007C1A08958F929F92AF92BF92DF92EF9226
:1021B000FF920F931F93CF93DF9300D000D00F9225
:1021C000CDB7DEB77C016D837983FC010581029573
:1021D0000F70128111110E94521A0E94AB19D82E51
:1021E000882371F01123A1F08D81805E883080F00A
:1021F00082E00E9495190E94AB1991E0D82ED92651
:10220000E981E295EF70F0E0EC5FF64D0C949928CF
:10221000D12CF6CF09810F70F981F07F11F0029572
:10222000007F1123B1F0002361F08D81805E883042
:1022300018F02D81211109C0802F0E94331A0E94AD
:102240007C1A8D810E94990F15C0802F0E94441A1C
:10225000F6CF8D810E947510002361F08D81805E24
:10226000883018F03D81311129C0802F0E94391A21
:102270000E947C1ADD2009F4F3C10E94881980FDB8
:10228000EFC1F70112820E9482190E94CB17C70189
:102290000E9441130E9482190F900F900F900F908F
:1022A0000F90DF91CF911F910F91FF90EF90DF90F2
:1022B000BF90AF909F908F900C94ED17802F0E944D
:1022C0004A1AD6CF49814F70B42E5981507F50326F
:1022D00019F0B29480EFB8228D81882369F08130A3
:1022E00029F1112369F1002359F0F701858180FF5D
:1022F000A8CF8F70858304C0112361F0011104C041
:102300008B2D0E94C410B6CF8B2D0130D1F70E94C7
:10231000661AB0CF011106C00E94691A8B2D0E9467
:10232000CB10A8CF013009F4A5CFF6CF112321F0AF
:10233000063008F09FCFE4CF053008F09BCFEECFFA
:10234000002361F38D810E94751094CF8981869559
:102350008695837069F0813009F08CCF8D819981E9
:102360009370111102C090E080E00E94CC0E82CFE9
:102370008D8199819370111102C090E080E00E94DC
:10238000B60E78CF8D81112329F00E94E51D0E94A1
:10239000CC1E70CF0E944D1EFACF8981837009F048
:1023A0005FC0111167CF2D81229526952770220FCE
:1023B000220F8D818F7090E0B0E0A0E04C015D01B4
:1023C000022E04C0880C991CAA1CBB1C0A94D2F7CC
:1023D000FD8160E070E0CB01F4FF0FC06FE070E0C2
:1023E00080E090E004C0660F771F881F991F2A9530
:1023F000D2F76095709580959095298126952695C0
:1024000023702D832230B1F0233019F19B01AC01F0
:10241000282939294A295B2929833A834B835C83FC
:102420003D8169817A818B819C813130B1F00E943C
:10243000581720CF9B01AC01282939294A295B294B
:1024400029833A834B835C83CA01B9010E948217B6
:1024500011CF0E945817C501B4010E942E170ACF50
:102460008695112311F089818170882309F402CFA8
:102470002D81229526952770220F220F8D818F7036
:1024800090E0B0E0A0E04C015D01022E04C0880C99
:10249000991CAA1CBB1C0A94D2F73D8160E070E035
:1024A000CB0134FF0FC06FE070E080E090E004C02B
:1024B000660F771F881F991F2A95D2F76095709530
:1024C0008095909549814695469543704D8342305D
:1024D000B1F0433019F19B01AC01282939294A296F
:1024E0005B2929833A834B835C833D8169817A81AF
:1024F0008B819C813130B1F00E945E18BBCE9B0174
:10250000AC01282939294A295B2929833A834B833D
:102510005C83CA01B9010E948818ACCE0E945E1883
:10252000C501B4010E943418A5CE3D81323F09F4A3
:1025300047C080F4303F79F1313FD9F1832F805E7D
:102540008031D0F0112309F456C001117ACE89816F
:102550008F7133C04D81433FD1F1443F99F711232F
:1025600009F43FC089818F7189830E94CB1763E092
:1025700089810E948C197ECE5D815F705D83898127
:102580008F71112321F00E94CB178D81BACE0E944A
:10259000ED178D81C4CE112341F0053008F06ACECD
:1025A00089818F710E94121865CE063008F062CEC4
:1025B000F7CF89818F71112339F00E94CB175ACE42
:1025C00089818F711123C9F30E94ED1753CE112316
:1025D00029F089818F710E94B6174CCE0E94AC17EA
:1025E00049CE81E00E949519023008F443CE82E082
:1025F0000E9495193FCE0111A5CE89818F71E4CF3C
:1026000049814F706D81C7010E94AB020E94A716DD
:1026100031CE11112FCEE981EF70E983E23099F0CC
:1026200028F4E1110DC00E94DB1F24CEF981F330A4
:1026300069F0F43009F01ECE8D810E9443201ACE3D
:102640000E94F31F17CE0E940C2014CE0E9420205F
:1026500011CE49814F706D81C7010E94C2040ACE1C
:102660000F900F900F900F900F90DF91CF911F91CF
:102670000F91FF90EF90DF90BF90AF909F908F9061
:1026800008950F931F93CF93DF93EC018B819C816F
:10269000892B29F08881998189238F3F29F4DF9143
:1026A000CF911F910F910895CE010E9410038823AE
:1026B000B1F3688179818A810E9458198C010E9446
:1026C000B2180E942317B801CE01DF91CF911F915C
:1026D0000F910C94D2100E94521A0E94631A0E9409
:1026E000251A0E947C1A0E94BD1F0E94CC1E90E0F9
:1026F00080E00E94B60E90E080E00C94CC0E0E9428
:10270000411A0C946B130E944C19282F892F829523
:102710008F70903C80F48A30B0F4843020F48230A2
:1027200090F480E008958630E1F781E0203E88F063
:10273000213FB9F70EC08C3011F08F3091F793FB29
:10274000882780F9089581E0203F39F018F4203E71
:1027500040F70895243F29F7FCCF0895CF93DF93E6
:1027600000D000D00F92CDB7DEB70F900F900F9032
:102770000F900F90DF91CF910895CF93DF9300D00A
:1027800000D000D0CDB7DEB726960FB6F894DEBFE6
:102790000FBECDBFDF91CF9108951F93CF93DF93ED
:1027A000E091A10116E08091A2018E1304C0DF9197
:1027B000CF911F910895CE2FD0E01E9FF0011124DC
:1027C000ED55FE4F408151816281738184819581F5
:1027D0000E94BD13FE013196E770E5CF4091D30111
:1027E0005091D4016091D5017091D6018091D701AB
:1027F0009091D8010C94BD131F93CF93DF938091D8
:10280000D801807FC1F48091D5018823A1F0809107
:10281000A101C091A2016091D3017091D4014091B6
:10282000D6015091D701D62FD723DA01A095B095C4
:1028300016E0C81304C0DF91CF911F91089590E076
:102840004115510511F0DF3F31F401968770F1CF4A
:102850002A0F3B1F17C0189FF001199FF00D11247C
:10286000ED55FE4F21812713F0CF20812613EDCFA8
:1028700022812111EACF238134812417350740F3C7
:10288000241B350B283C310500F72091D8012F700F
:1028900020612093D80126E0289FF001299FF00DA8
:1028A0001124E855FE4F80818F708061808383ED15
:1028B00091E00E944113DF91CF911F910C94CD13B1
:1028C0009F92AF92BF92CF92DF92EF92FF920F93BF
:1028D0001F93CF93DF93CDB7DEB72B970FB6F89446
:1028E000DEBF0FBECDBF8C0185E0F801DE0117967B
:1028F00001900D928A95E1F7D8014C9111965C9167
:1029000011971296EC9012978091D6019091D70171
:10291000009709F46BC12091D3013091D401632F4A
:1029200062236F3F09F462C11396CD90DC909090C2
:10293000D501992009F4F8C0C816D90608F43FC09B
:10294000F601E81BF90BCF01FF24F394883C9105B5
:1029500008F0F12C83EDA82E81E0B82E8091D801EB
:10296000982F907FFF2009F4B7C0911180C0FE2CF2
:1029700035132AC0241328C0E11026C08F7080614F
:102980008093D8010E94EE13C5010E9441138091EB
:10299000D801D80115968C938F2D2B960FB6F894ED
:1029A000DEBF0FBECDBFDF91CF911F910F91FF9082
:1029B000EF90DF90CF90BF90AF909F90089580955B
:1029C00090958C0D9D1DC0CFCD2829F0842F852397
:1029D0008F3F09F019C180E0B82FB170DB2EE09174
:1029E000A1012091A20136E080FD1CC0EE20A1F2E1
:1029F0008091D80181608093D801F12CCDCF8E2FAA
:102A000090E03E9FF0011124ED55FE4F618165136A
:102A100006C06081641303C062816E11E7CFFC01C0
:102A20003196E770E213EBCF4F8358878F819885FB
:102A30000E944C19292F22952F70903260F0225F4E
:102A40002F70223078F49F7051F0F8019581907FBB
:102A500031F4D12C0AC09F7011F08823D1F3805E2D
:102A60008830B8F3C8010E944113FD2C95CF35136F
:102A700006C0241304C0D801EE2009F47BC04F83A4
:102A800058878F8198850E948313882309F4B8C0E2
:102A9000EE2009F4B5C08091D801803270F0209109
:102AA000D3013091D4013A8329831B82DD82CC8209
:102AB0008E83CE0101960E94411386E0F801A3EDBA
:102AC000B1E001900D928A95E1F70E94FC130E94FB
:102AD000EE13FF24F39460CF911113C07C2DDB869D
:102AE000CA866E2D8B850E94AE1383ED91E00E9405
:102AF000411386E0F50111928A95E9F70E94EE13E1
:102B00004BCF3513BCCF2413BACFE110B8CFD801C7
:102B100015968C93C8010E94411386E0F50111922D
:102B20008A95E9F7F92C38CFC816D90688F1B6018D
:102B3000681B790BCB01F12C883C910508F047C04C
:102B4000FE2CEE2009F45CC0351330C024132EC0D7
:102B50008091D80180FD21C0982F907FF1F0D8019D
:102B600015968C931597903F39F0982F907F905F32
:102B70008F70892B15968C93C8010E94411386E0B3
:102B8000F801A3EDB1E001900D928A95E1F7B6CF7F
:102B9000809590958C0D9D1DCECF86E0F801A3ED1C
:102BA000B1E001900D928A95E1F7F6CE4F835887F8
:102BB0008F8198850E94831381117FCF8091D801E6
:102BC00081608093D801C8010E944113E5CE7C2D1D
:102BD000DB86CA866E2D8B850E94AE1386E0E3ED00
:102BE000F1E0DF011D928A95E9F788CFEE2041F0F0
:102BF0004F8358878F8198850E94831381115DCF01
:102C0000C8010E94411365CF81E08E25E5CE1F9358
:102C1000CF93DF93CDB7DEB72C970FB6F894DEBF16
:102C20000FBECDBF4F83588769877A878B879C8774
:102C3000CE0107960E946014882369F08A859B85DF
:102C4000892B39F04F815885842F85238F3F09F0D8
:102C500077C016E065C086E0FE013796DE0111966A
:102C600001900D928A95E1F76A857B856115710562
:102C700081F35F814885842F85238F3F51F3209115
:102C8000A20130E0C901019687709927E091A10166
:102C9000E817190671F40E947F131092A201109296
:102CA000A10186E0E3EDF1E0DF011D928A95E9F7ED
:102CB000D0CF59834A837D836C8396E0929FD00165
:102CC000939FB00D1124AD55BE4FFE01319601907A
:102CD0000D929A95E1F78093A2010E94CD13B9CF8E
:102CE000819FC00111248D559E4F0E94601488233E
:102CF000E9F0E091A1011E9FF0011124ED55FE4F76
:102D00004081518162817381848195810E94BD13CC
:102D10008091A10190E00196877099278093A1018D
:102D20008091A1019091A2018913DACF2C960FB660
:102D3000F894DEBF0FBECDBFDF91CF911F910895F4
:102D400069857A858B859C850E94BD1382CFEF9221
:102D5000FF920F931F93CF93DF938C01892B89F000
:102D6000F12CEE24E394E8012196F8018491843754
:102D700009F457C0A0F4823009F43EC048F4813011
:102D8000D1F0DF91CF911F910F91FF90EF900895B7
:102D90009CEF980F9037A8F70E94990F0AC08537CB
:102DA00009F44CC09CE7980F903758F78F770E9432
:102DB00075108E0116C00E5F1F4FFE01849190E2C8
:102DC000980F983060F48770FE2D01C0FF0F8A9530
:102DD000EAF78F2F0E94551A0E947C1A02C00E94A7
:102DE000990F8F2D815008F4BECFEFE9FFE03197A6
:102DF000F1F700C00000F6CF0E5F1F4FFE01849177
:102E000090E2980F983050F48770FE2D01C0FF0FAC
:102E10008A95EAF78F2F0E945B1ADECF0E94751009
:102E2000E0CF0E5F1F4FFE01C491C150D0F28FE979
:102E30009FE00197F1F700C00000F7CF0E5F1F4F32
:102E4000FE01F490CECF08956093E2017093E30108
:102E50008093E4019093E5010C946B13CF93DF937F
:102E600000D000D0CDB7DEB769837A838B839C8393
:102E70008091E2019091E301A091E401B091E5011C
:102E800029813A814B815C81822B932BA42BB52B1A
:102E90008093E2019093E301A093E401B093E501F4
:102EA0000F900F900F900F90DF91CF910C946B13B8
:102EB000CF93DF9300D000D0CDB7DEB769837A839C
:102EC0008B839C838091E2019091E301A091E401C6
:102ED000B091E50129813A814B815C818223932362
:102EE000A423B5238093E2019093E301A093E4012E
:102EF000B093E5010F900F900F900F90DF91CF915D
:102F00000C946B13CF93DF9300D000D0CDB7DEB716
:102F100069837A838B839C838091E2019091E301A2
:102F2000A091E401B091E50129813A814B815C8156
:102F300082279327A427B5278093E2019093E3018A
:102F4000A093E401B093E5010F900F900F900F90C4
:102F5000DF91CF910C946B131092DE011092DF0180
:102F60001092E0011092E1010C946B1341E050E0EB
:102F700060E070E004C0440F551F661F771F8A95FC
:102F8000D2F74093DE015093DF016093E00170932C
:102F9000E1010C946B13282F81E090E0A0E0B0E0F9
:102FA00004C0880F991FAA1FBB1F2A95D2F7409112
:102FB000DE015091DF016091E0017091E101842B0D
:102FC000952BA62BB72B8093DE019093DF01A09366
:102FD000E001B093E1010C946B1341E050E060E03C
:102FE00070E004C0440F551F661F771F8A95D2F703
:102FF00040955095609570958091DE019091DF012C
:10300000A091E001B091E10184239523A623B72389
:103010008093DE019093DF01A093E001B093E10182
:103020000C946B13282F81E090E0A0E0B0E004C086
:10303000880F991FAA1FBB1F2A95D2F74091DE0166
:103040005091DF016091E0017091E10184279527A3
:10305000A627B7278093DE019093DF01A093E001BC
:10306000B093E1010C946B13CF93DF9300D000D0A9
:10307000CDB7DEB769837A838B839C838091DE0131
:103080009091DF01A091E001B091E10129813A81A5
:103090004B815C81822B932BA42BB52B8093DE017B
:1030A0009093DF01A093E001B093E1010F900F90A6
:1030B0000F900F90DF91CF910C946B13CF93DF9310
:1030C00000D000D0CDB7DEB769837A838B839C8331
:1030D0008091DE019091DF01A091E001B091E101CA
:1030E00029813A814B815C8182239323A423B523D8
:1030F0008093DE019093DF01A093E001B093E101A2
:103100000F900F900F900F90DF91CF910C946B1355
:10311000CF93DF9300D000D0CDB7DEB769837A8339
:103120008B839C838091DE019091DF01A091E0016F
:10313000B091E10129813A814B815C8182279327FB
:10314000A427B5278093DE019093DF01A093E001CF
:10315000B093E1010F900F900F900F90DF91CF91FE
:103160000C946B130895292F220FE22FE90FE80F1B
:103170008E2F877041E001C0440F8A95EAF7E695EB
:10318000E695E69585E0E89FF0011124E752FE4FB1
:1031900030E020E070E05191DF011197CB01022E69
:1031A00002C0969587950A94E2F7817081958527EC
:1031B000842385278C932F5F3F4F2530310559F7A6
:1031C0000895292F220FE22FE90FE80F9E2F977005
:1031D000E695E695E69585E0E89FF0011124E75233
:1031E000FE4F50E040E080E0219130E0092E02C027
:1031F000369527950A94E2F721703327042E01C0F3
:10320000220F0A94EAF7822B4F5F5F4F453051053A
:1032100059F70895BF92CF92DF92EF92FF920F93EA
:103220001F93CF93DF938C01C090DE01D090DF011C
:10323000E090E001F090E1018091E2019091E301E2
:10324000A091E401B091E501C82AD92AEA2AFB2A13
:10325000CFE1D0E0BC2ED701C6010C2E04C0B6953C
:10326000A795979587950A94D2F780FD0EC0219770
:1032700088F7B12C8B2DDF91CF911F910F91FF908B
:10328000EF90DF90CF90BF900895B8018C2F0E94EF
:10329000DE04019761F3EECFCF93DF93D82FC92FD0
:1032A0000E940A196D2F7C2FDF91CF910C94DE04C0
:1032B0001F93CF93DF93162FD72F9091A0019923BF
:1032C00039F0862F972FDF91CF911F910C944C19D5
:1032D000882391F0862F972F0E940A19C82F682FF4
:1032E000812F9D2F0E94B318612F7D2F8C2FDF918E
:1032F000CF911F910C94DE04862F972F0E94E11826
:10330000C82FF2CF8091E601859585958595089522
:103310008091E6018770089598E0899F90011124BB
:10332000622B6093E6010C94CB179091E601809597
:1033300089238093E601282F277061F4282F082E17
:10334000000C330B9217130629F08595859585950A
:103350000C94ED1708959091E601977081E009F4BF
:1033600080E00895909150019923E1F090914A02F4
:1033700097FF18C0E82FE695E695E695EF3139F10D
:1033800020913E0130913F01E20FF32FF11D877034
:1033900021E030E001C0220F8A95EAF78181822B7B
:1033A0008183089520913E0130913F01F9013296C9
:1033B0009FEF40E05191851751F09F3F19F4511153
:1033C00001C0942F4F5F4E31A9F79F3F09F4089534
:1033D000290F311D97FD3A95F90182830895909147
:1033E0005001992301F190914A0297FF1CC0E82FE8
:1033F000E695E695E695EF3139F120913E01309161
:103400003F01E20FF32FF11D877021E030E0A901A9
:1034100002C0440F551F8A95E2F7CA018095918139
:1034200089238183089520913E0130913F01F90164
:103430003296205E3F4F9191891303C0DF011197AF
:103440001C92E217F307B9F7089581E090E0E0914C
:103450003E01F0913F01E80FF91F10820196803282
:103460009105A9F7089590910A02982B90930A026A
:103470000895982F909580910A02892380930A02DB
:10348000089510920A02089590910902982B909342
:1034900009020895982F90958091090289238093BD
:1034A0000902089510920902089590910802982B3C
:1034B000909308020895982F90958091080289238F
:1034C0008093080208951092080208958093E701FE
:1034D00008951092E701089520913E0130913F0137
:1034E000F9013196205E3F4F80E0919191118F5FFD
:1034F000E217F307D1F70895E0913E01F0913F0103
:1035000080910A028083E0913E01F0913F01808129
:1035100090910902892B8083E0913E01F0913F0157
:10352000808190910802892B80839091E7019923F3
:1035300061F0E0913E01F0913F018081892B808311
:103540000E946C1A81111092E70180913E019091C6
:103550003F010C94A00E6DEE7EEF90E080E00E94A3
:10356000D12860E082E090E00E94B32860E083E030
:1035700090E00E94B32860E084E090E00E94B328CD
:1035800060E085E090E00E94B32860E086E090E093
:103590000E94B32840E050E0BA0188E090E00C942B
:1035A000C52890E080E00E94AD289C0181E02D3E7E
:1035B0003E4F09F080E0089582E090E00C949F284F
:1035C000682F82E090E00C94B32883E090E00C94A4
:1035D0009F28682F83E090E00C94B32884E090E06B
:1035E0000C949F28682F84E090E00C94B32886E028
:1035F00090E00C949F28682F86E090E00C94B3280C
:1036000080915102843051F110920C0288E190E0D7
:1036100020E40FB6F894A895809360000FBE209325
:10362000600080E00E94920480E00E94C00483B7A2
:10363000817F846083BF83B7816083BF78948895DE
:1036400083B78E7F83BF0FB6F894A89580916000F2
:10365000886180936000109260000FBE0895089505
:1036600008950E942F1B0E947B070E94301B80E060
:103670000E94E707982F81E0911101C080E0089532
:103680000E947F130E94C91F0E94940E0C94C004D4
:103690001F921FB61F9211248F939F93AF93BF93D6
:1036A00080910C02811113C08091460290914702D3
:1036B000A0914802B09149024196A11DB11D80938D
:1036C000460290934702A0934802B0934902BF91EB
:1036D000AF919F918F911F901FBE1F90189582E010
:1036E00084BD93E095BD9AEF97BD80936E000895D9
:1036F0002FB7F8948091460290914702A09148021A
:10370000B09149022FBF0895CF92DF92EF92FF92BE
:103710009C014FB7F8948091460290914702A09186
:103720004802B09149024FBF6C017D01EE24FF2495
:10373000A90170E060E0C416D506E606F70638F089
:10374000821B930BFF90EF90DF90CF90089501972D
:10375000F7CF1F921FB61F9211248F939F93AF93A1
:10376000BF938091460290914702A0914802B09188
:1037700049020196A11DB11D809346029093470214
:10378000A0934802B0934902BF91AF919F918F914E
:103790001F901FBE1F9018950E944824F8942FEF89
:1037A00087EA91E6215080409040E1F700C0000098
:1037B00087E090EBDC0180935A0290935B02A09328
:1037C0005C02B0935D0288E19CE00FB6F894A89586
:1037D000809360000FBE90936000FFCFEF92FF9246
:1037E0000F931F93CF93DF93082F80E00E94E7078A
:1037F000D0E0C0E0E82EF12C10E0C7010C2E02C092
:10380000959587950A94E2F780FF10C06C2F70E0C1
:1038100080E00E94C3040817190741F481E0DF919A
:10382000CF911F910F91FF90EF9008952196C33093
:10383000D10519F780E0F3CFCF93C82F8CE20E9417
:10384000EE1B882321F08C2FCF910C94EE1B80E08F
:10385000CF910895CF93DF9300D000D0CDB7DEB7DE
:103860000E94D11A811102C00E94AB1A95E6998379
:1038700008C00E947B078FE39CE90197F1F700C025
:103880000000A981A150A983A111F3CF89E20E9470
:103890001C1C811110C18AE20E941C1C81110E9413
:1038A000AB1A85E00E941C1C81110E94CC1B0E9457
:1038B000DC1A80930B0287E00E941C1C882371F0A5
:1038C0008BE10E941C1C882309F4D1C090910B024B
:1038D000892F8D7F91FF826080930B0280910B0274
:1038E0000E94E01A0E94EE1A90E090934B0280939F
:1038F0004A0280EE0E941C1C882341F090914A02EB
:10390000892F8E7F90FF816080934A0289E30E9415
:103910001C1C882341F090914A02892F8D7F91FFD2
:10392000826080934A0282EE0E941C1C882341F030
:1039300090914A02892F8B7F92FF846080934A0284
:1039400086EE0E941C1C882341F090914A02892F28
:10395000877F93FF886080934A0283EE0E941C1C3D
:10396000882341F090914A02892F8F7E94FF8061D5
:1039700080934A0285E30E941C1C882341F09091A9
:103980004A02892F8F7D95FF806280934A0281E3EE
:103990000E941C1C882341F090914A02892F8F7B42
:1039A00096FF806480934A0281E10E941C1C882358
:1039B00041F090914A02892F97FB87F980588093B4
:1039C0004A0280914A020E94F21A87E20E941C1C5D
:1039D00089838EE10E941C1C882319F0B981B26092
:1039E000B9838FE10E941C1C882319F0298124606F
:1039F000298380E20E941C1C882319F039813860D9
:103A0000398381E20E941C1C882319F0498140619E
:103A1000498382E20E941C1C882319F0598150625C
:103A2000598383E20E941C1C882319F089818064D9
:103A3000898384E20E941C1C8823B1F199819068DB
:103A4000998389810E94E91A3981232F30E050E05F
:103A500040E029833A834B835C83CA01B9010F900C
:103A60000F900F900F90DF91CF910C9424178EE060
:103A70000E941C1C882339F090910B02892F8B7FA8
:103A800092FF846029CF80E10E941C1C90910B0260
:103A9000882329F0892F877F93FF88601DCF892F86
:103AA0008E7F90FF816018CFA981A111CACF0E949B
:103AB000E51A282FCBCF0F900F900F900F90DF912A
:103AC000CF91089580910F0280FF12C06091430151
:103AD00085E0689FB0011124759567957595679588
:103AE00060387105A8F561157105A1F1862F08955B
:103AF00081FF09C06091430185E0689FB0011124F6
:103B000075956795EDCF6091430182FD0AC0809164
:103B100010028823D1F090914201609143018917EE
:103B200028F085E0689FB0011124DACF869FB001AC
:103B3000112485E0869F9001879F300D1124692F05
:103B400070E0C9010E948528CBCF65E070E0CECF40
:103B50008FE7089581E0089580910F0280FF0CC0E7
:103B60006091410170E07595679575956795611550
:103B7000710549F1862F089581FF06C060914101CA
:103B800070E075956795F3CF6091410182FD0BC0A0
:103B9000909110029923A1F0609140018091410120
:103BA000961738F0682F70E06038710500F38FE7E2
:103BB0000895899FC001112470E00E948528F4CFE8
:103BC00061E070E0D7CF81E00895803F31F40E943A
:103BD000621D8195809313020895813F19F40E941C
:103BE000621DF8CF823F31F40E94621D819580935F
:103BF00012020895833F19F40E94621DF8CF893F95
:103C000029F40E94AC1D8093140208958A3F21F488
:103C10000E94AC1D8195F7CF8B3F31F40E94AC1D03
:103C200081958093150208958C3F19F40E94AC1D74
:103C3000F8CF843F31F480911102816080931102AA
:103C40000895853F21F4809111028260F7CF863F6D
:103C500021F4809111028460F1CF873F21F480919B
:103C600011028860EBCF883F21F4809111028061BE
:103C7000E5CF8D3F31F480910F02816080930F0278
:103C800008958E3F21F480910F028260F7CF8F3F1D
:103C9000B9F780910F028460F1CF90911202803FBA
:103CA00041F48091130287FD10921302992371F061
:103CB0000895813F29F4809113021816ACF3F6CFD2
:103CC000823F81F497FFF2CF10921202809113028B
:103CD00090911402892B90911502892B49F710922B
:103CE00010020895833F19F4191674F3DFCF893F4A
:103CF00039F4809114021816CCF610921402D6CF23
:103D00008A3F29F48091140287FFD0CFF6CF8B3FF2
:103D100039F48091150287FFC9CF10921502C6CFE2
:103D20008C3F29F4809115021816BCF3BFCF843F55
:103D300031F4809111028E7F80931102B7CF853FBD
:103D400021F4809111028D7FF7CF863F21F480917D
:103D500011028B7FF1CF873F21F480911102877F81
:103D6000EBCF883F21F4809111028F7EE5CF8D3F0C
:103D700031F480910F028E7F80930F0297CF8E3F98
:103D800021F480910F028D7FF7CF8F3F09F08ECF06
:103D900080910F028B7FF0CF81E192E00E94AB0E09
:103DA0000E94781B90930E0280930D0208951F933A
:103DB000CF93DF9300D000D000D0CDB7DEB7809195
:103DC0000D0290910E020E94841BAC0180911002A2
:103DD0002091440130E0811106C0209145019AE014
:103DE000299F900111244217530788F02091120255
:103DF000A0911302A98310911402B0911502BE8301
:103E000021110FC09A2F912B9B2B09F0B2C026963F
:103E10000FB6F894DEBF0FBECDBFDF91CF911F91DB
:103E200008958F3F19F08F5F80931002121624F4CB
:103E30000E94621D809312028091120287FF05C0CA
:103E40000E94621D8195809312022981121624F42A
:103E50000E94621D809313028091130287FF05C0A8
:103E60000E94621D81958093130280911202882323
:103E700009F455C0309113023D83332309F44FC038
:103E8000282F880F330B440B550B29833A834B8320
:103E90005C83CA01B9010E94782723E333E343E33B
:103EA0005FE369837A838B839C8369817A818B81C9
:103EB0009C810E94DC2769837A838B839C83698140
:103EC0007A818B819C810E944027609312028D81B0
:103ED000082E000C990BAA0BBB0B89839A83AB832A
:103EE000BC83BC01CD010E94782723E333E343E385
:103EF0005FE369837A838B839C8369817A818B8179
:103F00009C810E94DC2769837A838B839C836981EF
:103F10007A818B819C810E94402760931302111645
:103F200024F40E94AC1D809314028091140287FF38
:103F300005C00E94AC1D8195809314029E811916C4
:103F400024F40E94AC1D809315028091150287FF16
:103F500005C00E94AC1D81958093150226960FB670
:103F6000F894DEBF0FBECDBFDF91CF911F910C94AF
:103F7000CC1E8F3F09F057CF68CF85E0E1E1F2E03A
:103F8000DF011D928A95E9F71092100210920F023C
:103F900008950E94D11A811102C00E94AB1A0E949A
:103FA000F71A982F80934C02817090FF02C0892FDE
:103FB00086950C94920480914C02982F96958630A9
:103FC00030F49F5F990F8170892B80934C02809110
:103FD0004C02816080934C020E94FB1A80914C023B
:103FE00086950C94920480914C02982F9E7F79F0D4
:103FF000825080934C028E7F91E009F490E0809192
:104000004C0290FB80F980934C020E94FB1A809135
:104010004C0286950C94920490914C02892F8E7FCD
:1040200090FF816080934C020E94FB1A90914C0299
:10403000892F817090FF02C0892F86950C9492047D
:1040400090914C02892F86958F5F8F779170843085
:10405000B8F4880F892B80934C0280914C028E7F9C
:1040600091E009F490E080914C0290FB80F98093FC
:104070004C020E94FB1A80914C0286950C9492048B
:1040800090934C02EACF90914C02292F2695282735
:10409000220F9170922B90934C029E7F21E009F4A5
:1040A00020E080914C0220FB80F980934C020E941A
:1040B000FB1A80914C0286950C94920480913602F2
:1040C0000895CF93DF9300D00F92CDB7DEB7209144
:1040D0005102243019F523E029838A839B8320939E
:1040E000E9008FEF9091E800815095FD06C095EDB5
:1040F0009A95F1F700008111F5CF8091E80085FFD6
:104100000DC050E040E063E070E0CE0101960E94F7
:10411000C0228091E8008E778093E8000F900F9086
:104120000F90DF91CF910895CF93DF9300D00F923E
:10413000CDB7DEB79C0180915102843031F582E029
:104140008983205831093B832A8383E08093E900E7
:104150008FEF9091E800815095FD06C095ED9A95FE
:10416000F1F700008111F5CF8091E80085FF0DC0C7
:1041700050E040E063E070E0CE0101960E94C02272
:104180008091E8008E778093E8000F900F900F9059
:10419000DF91CF910895209151022430F1F422E073
:1041A0002093E9002FEF3091E800215035FD06C043
:1041B00035ED3A95F1F700002111F5CF2091E80097
:1041C00025FF0BC050E040E065E070E00E94C02297
:1041D0008091E8008E778093E8000895CF93DF9375
:1041E000D82FC92F809151028430F1F49091500161
:1041F0009923E9F090914A0297FF19C08093E90052
:104200008FEF9091E800815095FD06C095E19A9559
:10421000F1F700008111F5CF8091E80050E040E017
:1042200060E270E085FD1AC0DF91CF91089581E0D2
:104230008093E9008FEF9091E800815095FD06C0D2
:1042400095ED9A95F1F700008111F5CF8091E80086
:1042500085FFEACF50E040E068E070E08D2F9C2FB2
:104260000E94C0228091E8008E778093E80080E26F
:10427000ED2FFC2FA6E1B2E001900D928A95E1F7B7
:10428000D3CF80915002811109C00E9448240E941E
:10429000A5248091E20084608093E200089510924A
:1042A00050020895089508950C94401B42E061EC7B
:1042B00081E00E94C42342E061EC82E00E94C423BA
:1042C00042E061EC83E00E94C42342E261EC84E0BE
:1042D0000C94C42380915302893089F148F48230D0
:1042E00009F494C0833009F44FC0813041F008953F
:1042F0008A3009F47BC08B3009F461C00895809145
:104300005202813A09F03FC08091E800877F809394
:10431000E8008091560290915702892B61F460E287
:1043200086E192E070E00E940F238091E8008B7795
:104330008093E800089560E090E080E0F3CF809102
:104340005202813201F580915602909157020097F6
:1043500011F00397C1F48091E800877F8093E80013
:104360008091E80082FF0BC08091F10080933602BB
:104370008091E8008B778093E8000C94F82380917B
:1043800051028111EDCF089580915202813AD9F7FF
:104390008091560290915702892BA9F78091E800ED
:1043A000877F8093E8008091E80080FFFCCF8091B8
:1043B00050018093F1008091E8008E77DCCF8091EE
:1043C0005202813201F78091560290915702892B57
:1043D000D1F68091E800877F8093E8000E94F8235F
:1043E00080915402809350010C947F13809152026B
:1043F000813249F68091E800877F8093E8000E942F
:10440000F8238091550280933702089580915202DB
:10441000813A09F0B8CF8091E800877F8093E80067
:104420008091E80080FFFCCF80913702C2CF84B733
:10443000877F84BF0FB6F894A8958091600088614B
:1044400080936000109260000FBE80E8809361004E
:10445000109261000E94E30E0E9448240E94A5244D
:104460008091E20084608093E20078940E94252786
:104470000E94E50E86E491E00E948F0E8091510229
:10448000853029F00E94EF0E0E94350DF7CF0E9473
:10449000001B80914F02882389F30E94311B8823DF
:1044A00069F30E94AA22EACF9C01DA01892F992799
:1044B00083309105C1F068F48130910509F445C05D
:1044C000029761F48DE690E029E433E02D933C936C
:1044D000089581329105E1F0829739F190E080E012
:1044E00030E020E0F3CFC9019927213059F0823024
:1044F000910559F0E5E4F3E0892B81F7849190E090
:104500009F01E4CFEDE2F3E0F9CFE9E1F3E0F6CF8C
:10451000643020F7E62FF0E0EE0FFF1FE05AFE4F69
:104520002081318189E090E0D1CF6430B8F670E02D
:10453000FB01EE0FFF1FE85AFE4F208131816C5ABC
:104540007E4FFB01808190E0C1CF82E190E026EBBD
:1045500033E0BCCF80E189BD82E189BD09B400FEB2
:10456000FDCF8091D8008F7D8093D8008091E000AE
:1045700082608093E0008091E00081FDFCCF08958F
:10458000AF92BF92CF92DF92FF920F931F93CF9380
:10459000DF936C01EB018A010E941724F82E811130
:1045A00023C00115110539F0F80180819181C81BE4
:1045B000D90BC80ED91EB12CA12C2097A9F080913F
:1045C000E80085FD22C08091E8008E778093E800A6
:1045D00001151105A1F0F80180819181A80EB91E85
:1045E000B182A08285E0F82E8F2DDF91CF911F91AF
:1045F0000F91FF90DF90CF90BF90AF9008950E94F1
:1046000017248823D1F2F82EEFCFF60181916F01A4
:104610008093F1002197FFEFAF1ABF0ACECFFC01C4
:10462000CB0120915802309159022617370790F09C
:10463000009729F42091E8002E772093E80040E0CD
:10464000009751F4411108C08091E80082FF31C009
:1046500080E00895C901F3CF209151022223A9F1EE
:104660002530A9F12091E80023FD2DC02091E8001C
:1046700022FDEACF2091E80020FFE2CF3091F30045
:104680002091F200009719F02830310558F041E0F0
:104690002830310509F040E02091E8002E77209382
:1046A000E800CECF41914093F10001972F5F3F4F3B
:1046B000E9CF80915102882341F0853041F080910B
:1046C000E80083FFC1CF81E0089582E0089583E090
:1046D0000895FC01CB012091580230915902261710
:1046E000370790F0009729F42091E8002E77209367
:1046F000E80040E0009751F4411108C08091E800C3
:1047000082FF32C080E00895C901F3CF20915102A9
:104710002223B1F12530B1F12091E80023FD2EC014
:104720002091E80022FDEACF2091E80020FFE2CFAF
:104730003091F3002091F200009719F028303105F4
:1047400058F041E02830310509F040E02091E800C0
:104750002E772093E800CECF44914093F10031961C
:1047600001972F5F3F4FE8CF80915102882341F09E
:10477000853041F08091E80083FFC0CF81E008954B
:1047800082E0089583E00895982F973028F08F7085
:104790008093E90081E008959093E900242F762F1B
:1047A00050E0981731F07091EC002091ED0050919D
:1047B000F00021FD02C09F5FE8CF3091EB003E7F0B
:1047C0003093EB003091ED003D7F3093ED00309160
:1047D000EB0031603093EB007093EC002093ED0020
:1047E0005093F0002091EE0027FDE5CF80E0089582
:1047F0008091520287FF13C08091E80082FF06C0BB
:104800008091E8008B778093E80004C0809151028A
:104810008111F2CF0895809151028823D9F38091BC
:10482000E80080FFF8CF8091E8008E77ECCF2091F0
:10483000E4003091E50095E6A9012091EC00822F7B
:10484000817020FF06C08091E80080FF06C080E0F4
:1048500008952091E80022FD1AC08091510288231A
:1048600089F0853089F08091EB0085FD0FC02091A3
:10487000E4003091E50042175307F9F29150E1F658
:1048800084E0089582E0089583E0089581E008952A
:104890000E94B6240E94BE24E0EEF0E08081816098
:1048A0008083E8EDF0E080818F77808319BCA7EDED
:1048B000B0E08C918E7F8C9380818F7E808310926C
:1048C000500208950F931F93CF93DF930E94B62455
:1048D0000E94BE24C8EDD0E088818F7788838881CC
:1048E0008068888388818F7D888319BC10925102EB
:1048F00010924D0210924F0210924E0200EE10E004
:10490000F80180818B7F808388818160888342E089
:1049100060E080E00E94C423E1EEF0E080818E7FC1
:104920008083E2EEF0E08081816080838081886016
:104930008083F80180818E7F808388818061888375
:10494000DF91CF911F910F910895E8EDF0E0808104
:104950008F7E8083E7EDF0E080818160808384E05A
:1049600082BF81E0809350020C946224E8EDF0E075
:1049700080818E7F80831092E20008951092DA0089
:104980001092E10008951F920F920FB60F9211241A
:104990002F933F934F935F936F937F938F939F9347
:1049A000AF93BF93EF93FF938091E10082FF0BC021
:1049B0008091E20082FF07C08091E1008B7F8093AD
:1049C000E1000E9424278091DA0080FF19C08091C5
:1049D000D80080FF15C08091DA008E7F8093DA00C6
:1049E0008091D90080FF94C080E189BD82E189BDBA
:1049F00009B400FEFDCF81E0809351020E94412165
:104A00008091E10080FF19C08091E20080FF15C015
:104A10008091E2008E7F8093E2008091E2008061CD
:104A20008093E2008091D80080628093D80019BC06
:104A300085E0809351020E9453218091E10084FF20
:104A400029C08091E20084FF25C080E189BD82E118
:104A500089BD09B400FEFDCF8091D8008F7D809381
:104A6000D8008091E1008F7E8093E1008091E20088
:104A70008F7E8093E2008091E20081608093E2006B
:104A800080914D02882309F449C084E0809351024B
:104A90000E9454218091E10083FF29C08091E200AF
:104AA00083FF25C08091E100877F8093E10082E051
:104AB0008093510210924D028091E1008E7F80938D
:104AC000E1008091E2008E7F8093E2008091E2001D
:104AD00080618093E20042E060E080E00E94C423B5
:104AE0008091F00088608093F0000E945221FF9135
:104AF000EF91BF91AF919F918F917F916F915F9156
:104B00004F913F912F910F900FBE0F901F901895CE
:104B100019BC109251020E944F2172CF8091E30084
:104B200087FD02C081E0B2CF83E0B0CF1F920F9229
:104B30000FB60F9211242F933F934F935F936F9370
:104B40007F938F939F93AF93BF93CF93DF93EF9315
:104B5000FF93D091E900DF708091EC00C82FC17005
:104B600080FDC0E81092E9008091F000877F80937B
:104B7000F00078940E94DA251092E9008091F0000C
:104B800088608093F000CD2BCF70C093E900FF9137
:104B9000EF91DF91CF91BF91AF919F918F917F91D5
:104BA0006F915F914F913F912F910F900FBE0F909A
:104BB0001F9018951F93CF93DF93CDB7DEB7AA97B9
:104BC0000FB6F894DEBF0FBECDBF82E592E0FC01C8
:104BD00001962091F100208322E08A359207B9F7EF
:104BE0000E946A218091E80083FF16C180915202E1
:104BF000909153029A3008F00FC1E92FF0E0EC5E7B
:104C0000F64D0C949928803881F0823809F004C15F
:104C1000809156028F708093E9008091EB0085FBB4
:104C2000882780F91092E90006C080914E02909189
:104C30004F02911182609091E800977F9093E80075
:104C40008093F1001092F1008091E8008E77E0C02F
:104C5000882309F4CEC0823009F0DEC0809154026E
:104C60008111D1C0809156028F7009F4D5C0809314
:104C7000E9002091EB0020FFC6C0933031F4809111
:104C8000EB0080628093EB00BEC09091EB009061DE
:104C90009093EB0021E030E001C0220F8A95EAF703
:104CA0002093EA001092EA008091EB008860EACF3E
:104CB0008111B2C0109154021F778091E300807877
:104CC000812B8093E3008091E800877F8093E80048
:104CD0000E94F8238091E80080FFFCCF8091E300E0
:104CE00080688093E30082E0111183E08093510299
:104CF00093C08058823008F08FC080915402909108
:104D000055028C3D23E09207A1F583E08A838AE275
:104D100089834FB7F894DE01139620E03EE051E21C
:104D2000E32FF0E050935700E49120FF03C0E29599
:104D3000EF703F5FEF708E2F90E0EA30C0F0C796C3
:104D40008D939D932F5F243159F74FBF8091E800D9
:104D5000877F8093E8006AE270E0CE0101960E94AE
:104D60000F238091E8008B778093E80055C0C096B0
:104D7000E7CFAE014F5F5F4F609156020E94542211
:104D8000BC01892B09F448C08091E800877F80939B
:104D9000E80089819A810E946923E3CF8038E1F598
:104DA0008091E800877F8093E80080914D02809396
:104DB000F1004ACF811130C090915402923060F5D9
:104DC0008091E800877F8093E80090934D020E94D5
:104DD000F82380914D02882311F084E005C0809172
:104DE000E30087FDFACF81E0809351020E945621B3
:104DF00013C080915402813079F481E0933009F03E
:104E000080E080934F021092E9008091E800877F54
:104E10008093E8000E94F8238091E80083FF0AC095
:104E20008091E800877F8093E8008091EB008062AA
:104E30008093EB00AA960FB6F894DEBF0FBECDBFED
:104E4000DF91CF911F9108950895CF9380915102E2
:104E50008823A1F0C091E900CF709091EC00892FD8
:104E6000817090FD80E8C82B1092E9008091E800E5
:104E700083FD0E94DA25CF70C093E900CF91089599
:104E80000E9447276894B1110C94D62708950E9478
:104E9000BB2788F09F5798F0B92F9927B751B0F0EA
:104EA000E1F0660F771F881F991F1AF0BA95C9F7AE
:104EB00014C0B13091F00E94D527B1E008950C9450
:104EC000D527672F782F8827B85F39F0B93FCCF303
:104ED000869577956795B395D9F73EF4909580952B
:104EE000709561957F4F8F4F9F4F0895E89409C04B
:104EF00097FB3EF490958095709561957F4F8F4F0D
:104F00009F4F9923A9F0F92F96E9BB279395F69522
:104F1000879577956795B795F111F8CFFAF4BB0FA0
:104F200011F460FF1BC06F5F7F4F8F4F9F4F16C004
:104F3000882311F096E911C0772321F09EE8872F8E
:104F4000762F05C0662371F096E8862F70E060E04A
:104F50002AF09A95660F771F881FDAF7880F9695C3
:104F6000879597F9089557FD9058440F551F59F0AC
:104F70005F3F71F04795880F97FB991F61F09F3F46
:104F800079F087950895121613061406551FF2CF6F
:104F90004695F1DF08C0161617061806991FF1CFBF
:104FA00086957105610508940895E894BB276627E6
:104FB0007727CB0197F908950E94EF270C9460287A
:104FC0000E94522838F00E94592820F0952311F0B1
:104FD0000C9449280C944F2811240C94D6270E9435
:104FE000B32770F3959FC1F3950F50E0551F629F53
:104FF000F001729FBB27F00DB11D639FAA27F00D32
:10500000B11DAA1F649F6627B00DA11D661F829F58
:105010002227B00DA11D621F739FB00DA11D621F3D
:10502000839FA00D611D221F749F3327A00D611D5A
:10503000231F849F600D211D822F762F6A2F11243C
:105040009F5750409AF0F1F088234AF0EE0FFF1F6F
:10505000BB1F661F771F881F91505040A9F79E3FC6
:10506000510580F00C9449280C94D6275F3FE4F357
:10507000983ED4F3869577956795B795F795E7951C
:105080009F5FC1F7FE2B880F911D9695879597F925
:10509000089597F99F6780E870E060E008959FEFBA
:1050A00080EC089500240A941616170618060906BF
:1050B000089500240A94121613061406050608958E
:1050C000092E0394000C11F4882352F0BB0F40F416
:1050D000BF2B11F460FF04C06F5F7F4F8F4F9F4F56
:1050E0000895AA1BBB1B51E107C0AA1FBB1FA6172F
:1050F000B70710F0A61BB70B881F991F5A95A9F781
:1051000080959095BC01CD01089597FB072E16F46C
:10511000009407D077FD09D00E94712807FC05D0C4
:105120003EF4909581959F4F0895709561957F4FBE
:105130000895EE0FFF1F0590F491E02D0994F99961
:10514000FECF92BD81BDF89A992780B50895A6E15A
:10515000B0E044E050E00C94D928A8E1B0E042E08F
:1051600050E00C94D928262FF999FECF92BD81BD2D
:10517000F89A019700B4021639F01FBA20BD0FB695
:10518000F894FA9AF99A0FBE08950396272F0E9471
:10519000B4280E94B328252F0E94B428242F0C94F1
:1051A000B4280196272F0E94B4280C94B328DC0160
:1051B000CB01FC01F999FECF06C0F2BDE1BDF89A22
:1051C000319600B40D9241505040B8F70895F894CC
:1051D000FFCFBE03C303C803CD03D203D703DC0351
:1051E00034045904E103ED03F103F503F903FD036E
:1051F0000104050409040D041104150419041D0417
:105200002104250429042D040A110A1162116211D6
:10521000A611C2113A113A11CD113A1195129512F7
:10522000001309133A112913032628260C272826D0
:0C5230000C27582679260C27CE26DA26FB
:10523C000000800D8F0D0000000000000000380100
:10524C000000800D8F0D00000000000000003401F4
:10525C000000800D8F0D00000000000000003001E8
:10526C00A900AB00AA00AC00A800AE00FFFFE8014B
:10527C002808140A321E5E20EE20CB2094206120D8
:10528C0001929190404D3639840437040104C803CF
:08529C005B0374038D03A603FC
:00000001FF
